{
  "_format": "hh-sol-artifact-1",
  "contractName": "DocumentDetails",
  "sourceName": "contracts/smart_contract.sol",
  "abi": [
    {
      "anonymous": false,
      "inputs": [
        {
          "indexed": false,
          "internalType": "string",
          "name": "_uname",
          "type": "string"
        },
        {
          "indexed": false,
          "internalType": "string",
          "name": "_udate",
          "type": "string"
        },
        {
          "indexed": false,
          "internalType": "string",
          "name": "_docid",
          "type": "string"
        },
        {
          "indexed": false,
          "internalType": "string",
          "name": "_docname",
          "type": "string"
        },
        {
          "indexed": false,
          "internalType": "string",
          "name": "_doccontent",
          "type": "string"
        }
      ],
      "name": "ProductAdded",
      "type": "event"
    },
    {
      "inputs": [
        {
          "internalType": "string",
          "name": "_uname",
          "type": "string"
        },
        {
          "internalType": "string",
          "name": "_udate",
          "type": "string"
        },
        {
          "internalType": "string",
          "name": "_docid",
          "type": "string"
        },
        {
          "internalType": "string",
          "name": "_docname",
          "type": "string"
        },
        {
          "internalType": "string",
          "name": "_doccontent",
          "type": "string"
        }
      ],
      "name": "addProduct",
      "outputs": [
        {
          "internalType": "bytes32",
          "name": "_docHash",
          "type": "bytes32"
        }
      ],
      "stateMutability": "nonpayable",
      "type": "function"
    },
    {
      "inputs": [
        {
          "internalType": "string",
          "name": "_docid",
          "type": "string"
        }
      ],
      "name": "checkgenuine",
      "outputs": [
        {
          "internalType": "bool",
          "name": "",
          "type": "bool"
        }
      ],
      "stateMutability": "view",
      "type": "function"
    },
    {
      "inputs": [],
      "name": "doctor",
      "outputs": [
        {
          "internalType": "address",
          "name": "",
          "type": "address"
        }
      ],
      "stateMutability": "view",
      "type": "function"
    },
    {
      "inputs": [],
      "name": "getProductDetails",
      "outputs": [
        {
          "components": [
            {
              "internalType": "string",
              "name": "uname",
              "type": "string"
            },
            {
              "internalType": "string",
              "name": "udate",
              "type": "string"
            },
            {
              "internalType": "string",
              "name": "docid",
              "type": "string"
            },
            {
              "internalType": "string",
              "name": "docname",
              "type": "string"
            },
            {
              "internalType": "string",
              "name": "doccontent",
              "type": "string"
            }
          ],
          "internalType": "struct DocumentDetails.New_Product[]",
          "name": "",
          "type": "tuple[]"
        }
      ],
      "stateMutability": "view",
      "type": "function"
    },
    {
      "inputs": [],
      "name": "isGenuine",
      "outputs": [
        {
          "internalType": "bool",
          "name": "",
          "type": "bool"
        }
      ],
      "stateMutability": "view",
      "type": "function"
    },
    {
      "inputs": [],
      "name": "productCount",
      "outputs": [
        {
          "internalType": "uint256",
          "name": "",
          "type": "uint256"
        }
      ],
      "stateMutability": "view",
      "type": "function"
    }
  ],
  "bytecode": "0x608060405234801561001057600080fd5b50610c8a806100206000396000f3fe608060405234801561001057600080fd5b50600436106100625760003560e01c806323bc839b146100675780637ea7118c146100855780639d960007146100b0578063e0f6ef87146100d4578063eb4dd957146100eb578063ef6da8d4146100fe575b600080fd5b61006f610111565b60405161007c919061076e565b60405180910390f35b600054610098906001600160a01b031681565b6040516001600160a01b03909116815260200161007c565b6000546100c490600160a01b900460ff1681565b604051901515815260200161007c565b6100dd60045481565b60405190815260200161007c565b6100c46100f93660046108e8565b6104d6565b6100dd61010c366004610925565b610575565b6060600060045467ffffffffffffffff81111561013057610130610845565b60405190808252806020026020018201604052801561019357816020015b6101806040518060a0016040528060608152602001606081526020016060815260200160608152602001606081525090565b81526020019060019003908161014e5790505b50905060015b60045481116104d05760008181526002602052604090819020815160a081019092528054829082906101ca906109f7565b80601f01602080910402602001604051908101604052809291908181526020018280546101f6906109f7565b80156102435780601f1061021857610100808354040283529160200191610243565b820191906000526020600020905b81548152906001019060200180831161022657829003601f168201915b5050505050815260200160018201805461025c906109f7565b80601f0160208091040260200160405190810160405280929190818152602001828054610288906109f7565b80156102d55780601f106102aa576101008083540402835291602001916102d5565b820191906000526020600020905b8154815290600101906020018083116102b857829003601f168201915b505050505081526020016002820180546102ee906109f7565b80601f016020809104026020016040519081016040528092919081815260200182805461031a906109f7565b80156103675780601f1061033c57610100808354040283529160200191610367565b820191906000526020600020905b81548152906001019060200180831161034a57829003601f168201915b50505050508152602001600382018054610380906109f7565b80601f01602080910402602001604051908101604052809291908181526020018280546103ac906109f7565b80156103f95780601f106103ce576101008083540402835291602001916103f9565b820191906000526020600020905b8154815290600101906020018083116103dc57829003601f168201915b50505050508152602001600482018054610412906109f7565b80601f016020809104026020016040519081016040528092919081815260200182805461043e906109f7565b801561048b5780601f106104605761010080835404028352916020019161048b565b820191906000526020600020905b81548152906001019060200180831161046e57829003601f168201915b505050505081525050826001836104a29190610a41565b815181106104b2576104b2610a5a565b602002602001018190525080806104c890610a70565b915050610199565b50919050565b6000806002836040516020016104ec9190610a89565b60408051601f198184030181529082905261050691610aa3565b602060405180830381855afa158015610523573d6000803e3d6000fd5b5050506040513d601f19601f820116820180604052508101906105469190610abf565b9050600060038460405161055a9190610aa3565b90815260405190819003602001902054919091149392505050565b600480546000918261058683610a70565b90915550506040805160a081018252878152602080820188905281830187905260608201869052608082018590526004546000908152600290915291909120815181906105d39082610b27565b50602082015160018201906105e89082610b27565b50604082015160028201906105fd9082610b27565b50606082015160038201906106129082610b27565b50608082015160048201906106279082610b27565b509050507f97ba23f44241abd88615d522776289b8619bcda4bf217bf91d2f9500e2b45b7f8686868686604051610662959493929190610be7565b60405180910390a16000805460ff60a01b1916600160a01b179055604051600290610691908690602001610a89565b60408051601f19818403018152908290526106ab91610aa3565b602060405180830381855afa1580156106c8573d6000803e3d6000fd5b5050506040513d601f19601f820116820180604052508101906106eb9190610abf565b6001819055604051600390610701908790610aa3565b908152604051908190036020019020555060015495945050505050565b60005b83811015610739578181015183820152602001610721565b50506000910152565b6000815180845261075a81602086016020860161071e565b601f01601f19169290920160200192915050565b60006020808301818452808551808352604092508286019150828160051b87010184880160005b8381101561083757603f19898403018552815160a081518186526107bb82870182610742565b915050888201518582038a8701526107d38282610742565b91505087820151858203898701526107eb8282610742565b915050606080830151868303828801526108058382610742565b92505050608080830151925085820381870152506108238183610742565b968901969450505090860190600101610795565b509098975050505050505050565b634e487b7160e01b600052604160045260246000fd5b600082601f83011261086c57600080fd5b813567ffffffffffffffff8082111561088757610887610845565b604051601f8301601f19908116603f011681019082821181831017156108af576108af610845565b816040528381528660208588010111156108c857600080fd5b836020870160208301376000602085830101528094505050505092915050565b6000602082840312156108fa57600080fd5b813567ffffffffffffffff81111561091157600080fd5b61091d8482850161085b565b949350505050565b600080600080600060a0868803121561093d57600080fd5b853567ffffffffffffffff8082111561095557600080fd5b61096189838a0161085b565b9650602088013591508082111561097757600080fd5b61098389838a0161085b565b9550604088013591508082111561099957600080fd5b6109a589838a0161085b565b945060608801359150808211156109bb57600080fd5b6109c789838a0161085b565b935060808801359150808211156109dd57600080fd5b506109ea8882890161085b565b9150509295509295909350565b600181811c90821680610a0b57607f821691505b6020821081036104d057634e487b7160e01b600052602260045260246000fd5b634e487b7160e01b600052601160045260246000fd5b81810381811115610a5457610a54610a2b565b92915050565b634e487b7160e01b600052603260045260246000fd5b600060018201610a8257610a82610a2b565b5060010190565b602081526000610a9c6020830184610742565b9392505050565b60008251610ab581846020870161071e565b9190910192915050565b600060208284031215610ad157600080fd5b5051919050565b601f821115610b2257600081815260208120601f850160051c81016020861015610aff5750805b601f850160051c820191505b81811015610b1e57828155600101610b0b565b5050505b505050565b815167ffffffffffffffff811115610b4157610b41610845565b610b5581610b4f84546109f7565b84610ad8565b602080601f831160018114610b8a5760008415610b725750858301515b600019600386901b1c1916600185901b178555610b1e565b600085815260208120601f198616915b82811015610bb957888601518255948401946001909101908401610b9a565b5085821015610bd75787850151600019600388901b60f8161c191681555b5050505050600190811b01905550565b60a081526000610bfa60a0830188610742565b8281036020840152610c0c8188610742565b90508281036040840152610c208187610742565b90508281036060840152610c348186610742565b90508281036080840152610c488185610742565b9897505050505050505056fea2646970667358221220409f74665ea2d7f6f31f9c9c17b07bd3c4a6a376e5803b6cf082e69376ec031464736f6c63430008120033",
  "linkReferences": {},
  "deployedLinkReferences": {}
}